:100000001AC027C026C025C024C023C022C021C0DA
:1000100020C01FC0798D9AA2AAFFA3A3A3A1A1A16A
:10002000A1A1A114E6FF00000000000000005AFF9B
:10003000FEFDFFFEFD0011241FBECFE9CDBF20E075
:10004000A0E6B0E001C01D92AC36B207E1F7DBD00C
:1000500095C1D6CF26EB33E0019720F0F901319717
:10006000F1F7FACF089588EE93E0F4CFCF93C091E3
:10007000630081E08C0F8F73809363006091610057
:10008000962F9295990F907E609162006295660F0F
:10009000660F607C692B90916000692B90E061D1C4
:1000A0006FEF8C2F90E0CF915CC1CF9310926300E3
:1000B000C0916300C034B8F48C2F90E04BD18F3FD7
:1000C00021F4CF5FC0936300F3CF982F9F7090937C
:1000D000600085FB992790F99093610086FB882743
:1000E00080F980936200CF910895809160008F5FC6
:1000F0008093600090916600891710F01092600064
:1001000008958091600090916600891303C0109259
:1001100060000895811102C080916B00815080932E
:100120006000089581E08093660082E390E0909300
:100130006A008093690089E290E090936800809360
:10014000670080E290E0909365008093640083E014
:1001500080936B000895A29A81E687B986EC86B9F0
:100160000895811104C0611102C091EA9FBD89BD4B
:1001700066BF089590E0E0916400F0916500E80F9B
:10018000F91FE491EFBDE0916700F0916800E80F7E
:10019000F91F6491E0916900F0916A00E80FF91F7E
:1001A0008491DFCF369A3699FECF85B108951F939B
:1001B000CF93DF93C82FD4E111EACC2369F019BCA7
:1001C000D6BF84E690E046DF1FBD19BC16BE80E9AD
:1001D00091E040DFC150F1CFDF91CF911F910895A1
:1001E0001F93CF93DF93EC01888111E081278883EF
:1001F0003DDF82E0DCDF88811827188337DFDF915D
:10020000CF911F9130CFA39A83E687B986EC86B948
:100210003699FECF369A3699FECFC5B1B99AB89ABB
:1002200081EA8FBD81E083BF40DF7CDFC63F10F0F5
:100230005CDF0CC010926C00C53B10F062DF06C0A2
:1002400080916200811102C0109260000FDFBB9AA2
:10025000C39A81DF369AD0E010E00FEF81EAF82EE2
:1002600080916000E0916900F0916A00E80FF11D53
:10027000C491CD3F59F409BD16BE82E390E0EADE99
:10028000FFBC19BC16BE82E390E011C0CC3F89F4DC
:10029000C4E009BD16BE85E090E0DCDE19BC06BFF7
:1002A00081E490E0D7DEC150A1F780ED92E0D2DE8C
:1002B00024C0CE3F81F476DF982F80E0E82FF0E075
:1002C000EC5EFF4FE491E91710F48F5FF7CF6FDF1B
:1002D000CADEC9DE12C04EDF1F5F1B3548F0CF3FBC
:1002E00039F48091660082508093600043DFBEDE67
:1002F00084EF91E0AFDE10926C00349BB1CF85B1FA
:10030000813728F5DF5FD83018F1C0916000809107
:100310006600C81798F4CC2311F0C15010C0FFBC80
:1003200019BC16BE85B7877E806185BF85B78062A0
:1003300085BF889585B78F7D85BF01C0C2E08C2FB2
:1003400019DFC093600092DE8AEF90E083DED0E098
:10035000369A86CFE199FECF8EBBE09A99278DB36E
:100360000895262FE199FECF1CBA8EBB2DBB0FB688
:10037000F894E29AE19A0FBE01960895F894FFCF9F
:00000001FF
